:020000040800F2
:10000000000B00209D010008F12200084520000897
:10001000ED220008D5020008C52C000800000000F1
:100020000000000000000000000000006123000844
:10003000F303000800000000F92200086323000811
:10004000B7010008B7010008B701000851230008F4
:10005000B7010008B7010008B7010008B7010008A0
:10006000B7010008B7010008B7010008B701000890
:10007000B7010008D9020008B7010008B70100085D
:10008000B7010008B7010008B7010008B701000870
:10009000B7010008B7010008B7010008B701000860
:1000A000B7010008B7010008B7010008B701000850
:1000B000B7010008B7010008B7010008B701000840
:1000C000B7010008B7010008B7010008B701000830
:1000D000B7010008B7010008B7010008B701000820
:1000E000B7010008B7010008B7010008B701000810
:1000F000B7010008B7010008B7010008B701000800
:10010000B7010008B7010008B7010008B7010008EF
:10011000B7010008B7010008B7010008B7010008DF
:10012000B7010008B7010008B7010008B7010008CF
:10013000B7010008B7010008B7010008B7010008BF
:10014000B7010008B7010008B7010008B7010008AF
:10015000B7010008B7010008B7010008B70100089F
:10016000B7010008B7010008B7010008B70100088F
:10017000B7010008B7010008B7010008000000003F
:10018000B7010008B7010008DFF80CD000F090F8C4
:1001900000480047A9300008000B002006488047AF
:1001A00006480047FEE7FEE7FEE7FEE7FEE7FEE75C
:1001B000FEE7FEE7FEE7FEE74124000889010008AC
:1001C0002DE9F05F0546002092469B46884606468C
:1001D000814640241BE0284641464746224600F01F
:1001E00057F853465A46C01A914110D31146184643
:1001F000224600F03EF82D1A67EB01084F462246D2
:100200000120002100F035F817EB00094E41201EB7
:10021000A4F10104DFDC484631462A464346BDE8E6
:10022000F09FD2B201E000F8012B491EFBD27047CB
:100230000022F6E710B513460A4604461946FFF7B2
:10024000F0FF204610BD30B50B46014600202022AD
:10025000012409E021FA02F59D4205D303FA02F5D3
:10026000491B04FA02F52844151EA2F10102F1DC33
:1002700030BD202A04DB203A00FA02F1002070474A
:100280009140C2F1200320FA03F3194390407047D4
:10029000202A04DB203A21FA02F00021704721FADB
:1002A00002F3D040C2F12002914008431946704742
:1002B000064C074D06E0E06840F0010394E80700B3
:1002C00098471034AC42F6D3FFF762FFB431000810
:1002D000D431000800BFFEE710B5024800F096F8E0
:1002E00010BD00008C00002001460878103818234B
:1002F000B0FBF3F20848805CC865032A05D908689A
:100300006FF30900001D886503E008686FF30900BA
:100310008865886D70470000AC31000801460020F8
:100320008A6A8B69CBB932B1012A0DD0022A03D077
:10033000032A10D10EE000BFCB6A03F08073B3F143
:10034000807F00D1012007E0CB6AB3F1C07F00D1EC
:10035000012001E000E000BF34E08B69B3F5005FED
:100360001AD132B1012A07D0022A03D0032A11D1AF
:100370000AE000BF01200EE0CB6A03F08073B3F106
:10038000807F00D1012006E0CB6AB3F1C07F00D1AD
:10039000012000E000BF15E032B1012A05D0022A99
:1003A00004D0032A0CD103E000BF00BF012008E005
:1003B000CB6A03F08073B3F1807F00D1012000E0AD
:1003C00000BF00BF704730B50468246824F480245F
:1003D00005682C60046863608468402C04D104685C
:1003E000A2600468E16003E00468A1600468E26060
:1003F00030BD704706E04021034800F0FBFA64205E
:1004000000F0E4F9F7E7000000000240F8B5044608
:10041000002000908C4800684FF41651B0FBF1F7B3
:10042000A56D2E6894F85C1008208840304098B183
:100430002068006800F0040070B12068006820F0B7
:1004400004002168086094F85C1008208840A860C7
:10045000606D40F00100606594F85C1001208840F8
:10046000304068B12068406900F0800040B194F8E5
:100470005C1001208840A860606D40F0020060655B
:1004800094F85C1004208840304068B1206800680F
:1004900000F0020040B194F85C1004208840A8608D
:1004A000606D40F00400606594F85C101020884096
:1004B000304078B32068006800F0080050B394F82A
:1004C0005C1010208840A8602068006800F480203C
:1004D00080B12068006800F4002028B9206CC8B101
:1004E0002046216C884715E0A06C98B12046A16C8D
:1004F00088470FE02068006800F4807028B9206801
:10050000006820F0080021680860206C10B12046C7
:10051000216C884794F85C102020884030400028E7
:1005200065D02068006800F0100000285FD094F8C3
:100530005C1020208840A86094F83500052828D158
:100540002068006820F01600216808602068406973
:1005500020F0800021684861206C08B9A06C28B1A7
:100560002068006820F008002168086094F85C109A
:100570003F208840A86000BF002084F8340000BFFE
:10058000012084F83500206D10B12046216D884788
:10059000F8BD2068006800F4802080B12068006801
:1005A00000F4002028B9606C10B12046616C8847C7
:1005B0001DE0E06BD8B12046E16B884717E020686A
:1005C000006800F4807068B92068006820F01000AE
:1005D0002168086000BF002084F8340000BF0120BB
:1005E00084F83500E06B10B12046E16B8847606D00
:1005F00038B3606D00F00100F0B1052084F83500DB
:100600002068006820F001002168086000BF0098A1
:10061000401C0090B84200D905E02068006800F056
:1006200001000028F3D100BF00BF002084F834008F
:1006300000BF012084F83500E06C10B12046E16C69
:10064000884700BFA4E70000000000202DE9F0412A
:100650000446002500F0DEF9074614B90120BDE884
:10066000F081606A00B100BF00BF002084F8340050
:1006700000BF022084F835002068006820F00100E7
:10068000216808600AE000F0C5F9C01B052805D9FB
:1006900020206065032084F83500E0E720680068CA
:1006A00000F001000028EED12068056821480540CF
:1006B000D4E901010843E1680843216908436169FD
:1006C0000843A1690843E1690843216A08430543D7
:1006D000606A042803D1D4E90B010843054320686C
:1006E00005602068456925F00705606A0543606A72
:1006F00004280DD1A06A0543E06A48B12046FFF7FF
:100700000DFE28B140206065012084F83500A6E781
:10071000206845612046FFF7E7FD064694F85C1027
:100720003F208840B06000206065012084F83500DB
:10073000002094E73F8010F02DE9F04704460D4675
:1007400016461F464FF00008D4F8589000BF94F8A2
:100750003400012802D10220BDE8F087012084F88E
:10076000340000BF94F83500012825D1022084F818
:100770003500002060653B46324629462046FFF79B
:1007800022FE94F85C103F208840C9F808002068D9
:10079000006840F0160021680860206C28B12068CD
:1007A000006840F00800216808602068006840F098
:1007B00001002168086006E000BF002084F83400D2
:1007C00000BF4FF002084046C6E7000070B504467F
:1007D00000F020F906462546681C10B10448007850
:1007E000054400BF00F016F9801BA842FAD370BD83
:1007F00024000020F8B502460B4600250024002006
:100800000021DCE0012606FA01F51E6806EA05046F
:10081000AC4273D15E68012E08D05E68022E05D00E
:100820005E68112E02D05E68122E13D190684F00C0
:100830000326BE40B0434F00DE68BE4030439060A8
:10084000506801268E40B0431E79C6F300168E40D4
:1008500030435060D0684F000326BE40B0434F0085
:100860009E68BE403043D0605E68022E02D05E6853
:10087000122E13D1CF0802F1200656F827004E079A
:10088000F70E0F26BE40B0434F07FF0E1E69BE4055
:100890003043CF0802F1200646F8270010684F00C9
:1008A0000326BE40B0431E7906F003064F00BE404B
:1008B000304310605E6806F08056B6F1805F7DD1EF
:1008C00000BF00260096404E366846F480463E4FF4
:1008D0003E603E46366806F48046009600BF00BF84
:1008E0003A4E8F0856F827008E07370F0F26BE4066
:1008F000B043374EB24202D1002624E05EE0354ECE
:10090000B24201D101261EE0334EB24201D102268D
:1009100019E0324EB24201D1032614E0304EB24209
:1009200001D104260FE02F4EB24201D105260AE084
:100930002D4EB24201D1062605E02C4EB24201D125
:10094000072600E008268F073F0FBE4030431F4EAA
:100950008F0846F82700264E3068A0435E6806F4EC
:100960008036B6F5803F00D12043214E3060361DE1
:100970003068A0435E6806F40036B6F5003F00D14B
:1009800020431B4E361D3060361D3068A0435E6824
:1009900006F48016B6F5801F00D12043144E0836A9
:1009A0003060361D3068A0435E6806F40016B6F568
:1009B000001F00D120430E4E0C363060491C102918
:1009C000FFF420AFF8BD0000443802400838014071
:1009D000000002400004024000080240000C0240F7
:1009E000001002400014024000180240001C0240A7
:1009F000003C014042690A408A4202D10A048261F5
:100A000000E0816170470AB1816101E00B048361FC
:100A10007047000001480068704700001C0000207B
:100A20000348006803490978084401490860704791
:100A30001C0000202400002010B50D48006840F480
:100A400000700B4908600846006840F48060086048
:100A50000846006840F480700860032000F0A2F8A7
:100A6000002000F007F800F02BF8002010BD000077
:100A7000003C024070B504460E4800784FF47A718D
:100A8000B1FBF0F00C490968B1FBF0F5284600F025
:100A900004FF08B1012070BD102C07D200222146AE
:100AA000501E00F041F80548046001E00120F2E723
:100AB0000020F0E72400002000000020200000209B
:100AC00008B500BF002000900E48006840F4804048
:100AD0000C4908600846006800F48040009000BFA0
:100AE00000BF00BF00200090081F006840F0805049
:100AF000091F08600846006800F08050009000BFA1
:100B000000BF08BD4438024001460846002809DB02
:100B100000F01F0301229A4043099B0003F1E023E8
:100B2000C3F8002100BF70472DE9F05F80460D46F5
:100B30001646002702F0D8F8074639462A463346BB
:100B400001F00700C0F1070ABAF1040F02D94FF013
:100B5000040A01E0C0F1070AD14600F1040ABAF123
:100B6000070F02D24FF0000A01E0A0F1030AD446B9
:100B70004FF0010A0AFA09FAAAF1010A0AEA020A7E
:100B80000AFA0CFA4FF0010B0BFA0CFBABF1010B5C
:100B90000BEA030B4AEA0B042146404602F0ACF88C
:100BA000BDE8F09F00BF00F00702064B19684FF642
:100BB000FF031940044B0B4343EA0221014B196028
:100BC00000BF70470CED00E00000FA05F8B50446E0
:100BD00000250026207800F0010020B9207800F0E0
:100BE000040004282FD100205B498866FFF712FF1C
:100BF000054606E0FFF70EFF401B022801D903203F
:100C0000F8BD56480068C0F3C0600028F2D16068A3
:100C10008101207A41EA0070504984310860012046
:100C20004D498866FFF7F6FE054606E0FFF7F2FE3F
:100C3000401B022801D90320E2E748480068C0F3BE
:100C4000C0600028F2D0207800F0020002287DD198
:100C500000BF0020009041484030006840F08050C4
:100C60003E49403108600846006800F0805000901E
:100C700000BF00BF3A48006840F4807038490860FF
:100C8000FFF7C8FE054606E0FFF7C4FE401B02283A
:100C900001D90320B4E73248006800F480700028CE
:100CA000F2D02E487030006800F440764EB3A08930
:100CB00000F44070B04224D028487030006820F41E
:100CC00040760120274908600020086023487030E2
:100CD0000660006800F0010098B1FFF79BFE054632
:100CE00008E0FFF797FE401B41F28831884201D9A6
:100CF000032085E7194870300068C0F340000028E1
:100D0000EFD000BFA08900F44070B0F5407F0CD157
:100D100012480830006820F4F810134AE1681140C6
:100D200008430E490831086007E00C4808300068A5
:100D300020F4F8100949083108600848703000684C
:100D4000A189C1F30B010843044900E002E07031BE
:100D5000086000BF002053E700004742003802400F
:100D600000700040400E4742FFFCFF0F704700003C
:100D700070B504460D460CB9012070BD5848006896
:100D800000F00F00A84209D255490D7008460068CE
:100D900000F00F00A84201D00120EEE7207800F01B
:100DA000020002281DD1207800F00400042805D19B
:100DB0004C48006840F4E0504A490860207800F050
:100DC0000800082805D14748006840F460404549BC
:100DD00008604448006820F0F000A16808434149D9
:100DE0000860207800F00100A8B36068012807D1EE
:100DF0003C4808380068C0F34040B8B90120BCE75F
:100E00006068022802D06068032807D13548083896
:100E10000068C0F3406048B90120AEE731480838A7
:100E20000068C0F3400008B90120A6E72D4800681B
:100E300020F00300616808432A490860FFF7EAFDD3
:100E4000064609E0FFF7E6FD801B41F28831884243
:100E500002D9032091E707E02248006800F00C0067
:100E60006168B0EB810FEDD11D48006800F00F0004
:100E7000A84209D91A490D700846006800F00F0011
:100E8000A84201D0012078E7207800F0040004286F
:100E900007D11448006820F4E050E1680843114984
:100EA0000860207800F00800082808D10D48006884
:100EB00020F46040216940EAC1000A49086000F05E
:100EC00045F808490968C1F30311074A515CC84055
:100ED0000649086006480068FFF7CCFD00204CE793
:100EE000003C024008380240943100080000002015
:100EF0002000002001200149C864704700004742DB
:100F000001480068704700000000002000B5FFF7AE
:100F1000F7FF04490968C1F38221034A515CC840C4
:100F200000BD000008380240A431000800B5FFF7FA
:100F3000E7FF04490968C1F34231034A515CC840E4
:100F400000BD000008380240A43100082DE9F04738
:100F5000002400250026A1462548006800F00C006A
:100F600020B1042805D008283AD105E0DFF88490A4
:100F700039E0DFF8849036E01D48001F006800F07B
:100F80003F041B48001F006800F4800078B11A4835
:100F90001749091F0968C1F38811A0FB01700146B8
:100FA000224600233846FFF70BF905460EE01148AC
:100FB0000F49091F0968C1F38811A0FB01700146A0
:100FC000224600233846FFF7FBF805460848001F75
:100FD0000068C0F30140401C4600B5FBF6F902E092
:100FE000DFF8109000BF00BF4846BDE8F087000062
:100FF000083802400024F40000127A0010B50648B8
:10100000006800F08000802805D1FFF7AFFE802047
:101010000149891C087010BD0C380240F8B504461F
:101020000CB90120F8BD207800F00100002874D030
:10103000F948006800F00C0004280DD0F64800685C
:1010400000F00C00082813D1F348001F006800F4DA
:101050008000B0F5800F0BD1EF4808380068C0F36E
:101060004040002859D06068002856D10120D9E7B7
:1010700000BF6068B0F5803F08D1E74808380068D5
:1010800040F48030E449083908601EE06068B0F53B
:10109000A02F0DD1E0480838006840F48020DE49D8
:1010A000083908600846006840F4803008600CE0A9
:1010B000D9480838006820F48030D74908390860DA
:1010C0000846006820F48020086000BF606890B186
:1010D000FFF7A0FC054606E0FFF79CFC401B6428D8
:1010E00001D903209EE7CC4808380068C0F340408F
:1010F0000028F1D011E0FFF78DFC054606E0FFF770
:1011000089FC401B642801D903208BE7C2480838BA
:101110000068C0F340400028F1D1207800F00200C0
:1011200002285FD1BC48006800F00C0058B1BA48F2
:10113000006800F00C0008281CD1B748001F0068A8
:1011400000F48000B0B9B44808380068C0F340002B
:1011500020B1E068012801D0012063E7AE480838DB
:10116000006820F0F800216940EAC100AA49083966
:10117000086037E0E06800B30120A8490860FFF785
:1011800049FC054606E0FFF745FC401B022801D953
:10119000032047E7A04808380068C0F34000002853
:1011A000F1D09D480838006820F0F800216940EA35
:1011B000C10099490839086014E000209749086087
:1011C000FFF728FC054606E0FFF724FC401B022839
:1011D00001D9032026E7904808380068C0F3400092
:1011E0000028F1D1207800F0080008282CD160698F
:1011F000A8B101208A490860FFF70CFC054606E00B
:10120000FFF708FC401B022801D903200AE78248A7
:101210006C300068C0F340000028F1D014E00020DA
:101220007F490860FFF7F6FB054606E0FFF7F2FB93
:10123000401B022801D90320F4E677486C3000688F
:10124000C0F340000028F1D1207800F00400042809
:1012500070D1002770483830006800F0805090B995
:1012600000BF002000906C483830006840F080508B
:101270006949383108600846006800F080500090E5
:1012800000BF00BF01276748006800F48070B0B954
:101290006448006840F4807062490860FFF7BAFB58
:1012A000054606E0FFF7B6FB401B022801D90320E4
:1012B000B8E65C48006800F480700028F2D000BFF7
:1012C000A068012808D154486830006840F0010047
:1012D0005149683108601DE0A06805280DD14E48CD
:1012E0006830006840F004004B49683108600846E7
:1012F000006840F0010008600CE047486830006872
:1013000020F001004449683108600846006820F078
:101310000400086000BFA068A8B1FFF77BFB05468A
:1013200009E0FFF777FB401B41F28831884202D980
:10133000032077E626E0384868300068C0F34000B4
:101340000028EED013E0FFF765FB054608E0FFF745
:1013500061FB401B41F28831884201D9032061E6DC
:101360002D4868300068C0F340000028EFD1012FFD
:1013700007D129483830006820F08050264938319C
:10138000086000BFA069002845D02348006800F02D
:101390000C0008285DD0A069022845D100201F4913
:1013A0000866FFF737FB054606E0FFF733FB401BF7
:1013B000022801D9032035E6174808380068C0F331
:1013C00040600028F1D1D4E907010843616A40EA8E
:1013D00081110122A06AC2EB500041EA00412C2099
:1013E000005D41EA00600C49091F086001200B49BB
:1013F0000866FFF70FFB054606E0FFF70BFB401BF7
:10140000022801D903200DE6034808380068C0F31C
:1014100040600028F1D03FE0083802400000474219
:10142000800E47420070004000201C490866FFF70C
:10143000F1FA054606E0FFF7EDFA401B022801D954
:101440000320EFE516480068C0F340600028F2D1A1
:1014500022E0A069012800D1E4E5114808300668BF
:1014600006F48001E069814214D106F03F01206A50
:1014700081420FD147F6C0703040616A884209D17D
:1014800006F44031A06A814204D106F07061E06A3E
:10149000814201D00120C5E50020C3E5000047429C
:1014A0000038024018B5034600BF187F012801D15B
:1014B000022018BD0120187700BF0220587700BF16
:1014C000CA201C68606253201C68606200BF1868F4
:1014D000806800F4806000B34148006840094FF420
:1014E0007A74B0FBF4F06043009000BF0098441E93
:1014F000009460B900BFFF201C68606200BF032039
:10150000587700BF0020187700BF0320D1E7186884
:10151000C068C0F380000028E8D11868806820F413
:1015200080601C68A0602E48006840094FF47A74FF
:10153000B0FBF4F06043009000BF0098441E00949C
:1015400060B900BFFF201C68606200BF03205877AD
:1015500000BF0020187700BF0320AAE71868C06802
:10156000C0F380000028E8D01868416118688068DE
:1015700020F007001C68A0601868806810431C6891
:10158000A0601848006840F48000164C20601548A0
:101590000830006840F48000124C0834206018685D
:1015A000C06800F0800060F490601C68E06018681B
:1015B000806840F480401C68A0601868806840F42F
:1015C00080601C68A06000BFFF201C68606200BFD4
:1015D0000120587700BF0020187700BF00BF68E7E0
:1015E00000000020003C014010B586B004460022F7
:1015F0006946204600F082F8002205A9204600F046
:1016000057F89DF816309DF815209DF8170000F545
:10161000FA610AA001F058FB9DF802309DF8012004
:101620009DF8001009A001F04FFB0CA001F04CFB4D
:1016300080211048FFF7DEF906B010BD2530346474
:101640002D253032642D253032640A002530326475
:101650003A253032643A253032640A002D2D2D2D82
:101660002D2D2D2D2D2D2D2D2D2D2D2D2D2D0A0AF0
:10167000000000000000024010B504462068C06869
:10168000C0F3802050B12046FFF7AEFF2068C0684D
:1016900000F0800060F490602168C8604FF4800022
:1016A000024908600120607710BD0000143C014031
:1016B00070B505460B4616460024286840680E495A
:1016C00000EA0104200CD870C4F30420587004F020
:1016D0003F009870C4F3423018705EB9D87800F0BB
:1016E0000CFED870587800F008FE5870987800F01A
:1016F00004FE9870002070BD3FFFFF0070B50446E7
:101700000B46164600252068806A586020680069EC
:10171000C0F30E009860206800680F4900EA0105D8
:10172000C5F305401870C5F30620587005F07F001A
:10173000987005F48000000CD8705EB9187800F03D
:10174000DCFD1870587800F0D8FD5870987800F0DB
:10175000D4FD9870002070BD7F7F7F0010B50446D7
:101760000CB9012010BD607F20B9002020772046F1
:1017700000F060F80220607700BFCA20216848624C
:1017800053202168486200BF204600F0C1FD40B1EF
:1017900000BFFF202168486200BF0420607701205D
:1017A000E0E7206880682249084021688860216954
:1017B00060680843616908432168896808432168B3
:1017C00088602168E068086120680169208941EA31
:1017D0000040216808612068C06820F0800021680E
:1017E000C8602068806800F0200060B9204600F0E2
:1017F00037F840B100BFFF202168486200BF0420D5
:1018000060770120AEE72068006C20F4802021681A
:1018100008642068006CA16908432168086400BF5F
:10182000FF202168486200BF01206077002099E70F
:10183000BFFF8FFF10B504460749206888420AD1D0
:10184000012006490860002201210320FFF76CF9FE
:101850000320FFF759F910BD002800403C0E474215
:1018600070B5044600252068C06820F0A0002168FB
:10187000C860FFF7CFF8054607E0FFF7CBF8401B3D
:10188000B0F57A7F01D9032070BD2068C06800F0F0
:1018900020000028F1D00020F6E770B50446254668
:1018A000681EB0F1807F01D301200FE0681E4FF069
:1018B000E02148610F214FF0FF3001F01DFA0020B8
:1018C0004FF0E021886107200861002070BD000012
:1018D00030B502460B4600BF92F83C00012801D10A
:1018E000022030BD012082F83C0000BF022082F8B7
:1018F0003D00106844681068816824F0700418681E
:10190000044310684460184D1068A8421BD010684A
:10191000B0F1804F17D0154D1068A84213D0144D68
:101920001068A8420FD0134D1068A8420BD0124D7A
:101930001068A84207D0114D1068A84203D0104D7E
:101940001068A84205D121F0800158680143106851
:101950008160012082F83D0000BF002082F83C0039
:1019600000BF00BFBDE700000000014000040040D0
:1019700000080040000C004000040140004001400D
:101980000018004010B504460CB9012010BD94F8B1
:101990003D0028B9002084F83C00204600F00CF8F7
:1019A000022084F83D00211D206800F07BFD01200D
:1019B00084F83D000020E9E738B504461E49206858
:1019C000884237D100BF002000901C48006840F0DA
:1019D00002001A4908600846006800F00200009002
:1019E00000BF00BF1648174908604FF020604860EC
:1019F0004021144881600021C1604FF48061016181
:101A000049004161890081610021C1614FF4803149
:101A1000016200214162FEF719FE08B1FEF7EAFCFF
:101A200000BF084921630846846300BF00BF2062ED
:101A3000846300BF38BD000000040040403802400D
:101A4000406002408C0000202DE9F04104460D4624
:101A500000BF94F83C00012802D10220BDE8F081CB
:101A6000012084F83C0000BF022084F83D0020687B
:101A7000866826F0770626F47F4620688660286808
:101A8000502833D00CDC202850D004DC00284BD068
:101A9000102851D149E0302849D040284CD139E0B4
:101AA00060282DD0702807D0B0F5805F03D0B0F546
:101AB000005F41D10DE040E0D5E902136A6820687B
:101AC00000F0BDFD2068866846F0770620688660D5
:101AD00033E0D5E902136A68206800F0B0FD2068A1
:101AE000806840F480402168886026E0EA68696880
:101AF000206800F095FE5021206800F0ABFD1CE04E
:101B0000EA686968206800F09EFE6021206800F0A5
:101B1000A1FD12E0EA686968206800F081FE4021BA
:101B2000206800F097FD08E000BF00BF00BF2968F3
:101B3000206800F08FFD00E000BF00BF012084F8A6
:101B40003D0000BF002084F83C0000BF00BF85E7D7
:101B50007047000010B586B00446142101A8FEF7B6
:101B600067FB1149206888421CD100BF002000900B
:101B70000E48006840F002000C4908600846006802
:101B800000F00200009000BF00BF02200190029010
:101B900000200390012004900220059001A9044830
:101BA000FEF728FE06B010BD0004004030380240A9
:101BB0000004024070B504460D46164600BF94F876
:101BC0003C00012801D1022070BD012084F83C00B6
:101BD00000BF022084F83D0036B1042E1BD0082E31
:101BE00031D00C2E5ED145E02946206800F03CFD46
:101BF0002068806940F00800216888612068806959
:101C000020F0040021688861206880692969084300
:101C10002168886147E02946206800F05DFD206862
:101C2000806940F40060216888612068806920F440
:101C300080602168886120688069296940EA012004
:101C4000216888612FE02946206800F083FD206824
:101C5000C06940F008002168C8612068C06920F0B0
:101C600004002168C8612068C069296908432168A7
:101C7000C86118E02946206800F0A8FD2068C06906
:101C800040F400602168C8612068C06920F4806069
:101C90002168C8612068C069296940EA012021687B
:101CA000C86100E000BF00BF012084F83D0000BF14
:101CB000002084F83C0000BF00BF85E710B5044653
:101CC0000CB9012010BD94F83D0028B9002084F81B
:101CD0003C00204600F00CF8022084F83D00211D55
:101CE000206800F0DFFB012084F83D000020E9E7D8
:101CF00070477047704700002DE9F04104460E46DA
:101D000015461F4694F83D00022801D1BDE8F08138
:101D100094F83D00012805D10DB907B1F6E702207E
:101D200084F83D0036B1042E1FD0082E38D00C2E7A
:101D30006CD150E04949606AC1634949606A0164F5
:101D40004849606AC164216801F134023B46294672
:101D5000606AFEF7F1FC08B10120D7E72068C0688F
:101D600040F400702168C86051E03C49A06AC1633A
:101D70003B49A06A01643B49A06AC164216801F142
:101D800038023B462946A06AFEF7D6FC08B101207E
:101D9000BCE72068C06840F480602168C86036E015
:101DA0002E49E06AC1632E49E06A01642D49E06A68
:101DB000C164216801F13C023B462946E06AFEF716
:101DC000BBFC08B10120A1E72068C06840F40060B6
:101DD0002168C8601BE02149206BC1632049206B4A
:101DE00001642049206BC164216801F140023B4637
:101DF0002946206BFEF7A0FC08B1012086E7206889
:101E0000C06840F480502168C86000E000BF00BF97
:101E100001223146206800F0B1FB13492068884256
:101E200003D012492068884201D1012000E000203F
:101E300028B12068406C40F4004021684864206864
:101E4000806800F00708B8F1060F05D02068006828
:101E500040F0010021680860002057E79F25000836
:101E6000E52500082B260008000001400004014081
:101E700010B504460CB9012010BDA06900B100E006
:101E800000BF94F8390028B9002084F838002046B3
:101E900000F028F8242084F839002068C06820F475
:101EA00000502168C860204600F0E2FC206800690C
:101EB00020F49040216808612068406920F02A00E1
:101EC000216848612068C06840F400502168C860FB
:101ED0000020E063202084F8390084F83A000020D4
:101EE000CAE7000010B586B00446142101A8FEF729
:101EF0009FF91B492068884230D100BF0020009024
:101F00001848006840F0100016490860084600684C
:101F100000F01000009000BF00BF00BF0020009044
:101F200010481438006840F001000E491439086068
:101F30000846006800F00100009000BF00BF4FF4A9
:101F4000C0600190022002900020039003200490C2
:101F50000720059001A90448FEF74CFC06B010BD0F
:101F60000010014044380240000002402DE9F843CF
:101F700004460D4616461F464FF0000994F83900F6
:101F800020285DD105B116B90120BDE8F88300BF56
:101F900094F83800012801D10220F6E7012084F8E6
:101FA000380000BF0020E063212084F83900FEF7EC
:101FB00031FD8146A684E68400BF002084F8380005
:101FC00000BF2BE0E08C401EE084A068B0F5805F8D
:101FD00016D14B46002280212046009700F03CFE9F
:101FE00008B10320D1E7A846B8F80000C0F3080004
:101FF00021684860206908B9AD1C0FE06D1C0DE038
:102000004B46002280212046009700F025FE08B1B3
:102010000320BAE715F8010B21684860E08C00281E
:10202000D0D14B46002240212046009700F014FEFC
:1020300008B10320A9E7202084F839000020A4E794
:102040000220A2E700BFFEE708B500BF0020009015
:102050000A48006840F40010084908600846006813
:1020600000F40010009000BF00BF002211460D20B8
:10207000FEF75AFD0D20FEF747FD08BD303802403F
:1020800000B587B0142102A8FEF7D2F800BF0020E7
:1020900001903A48006840F010003849086008464E
:1020A000006800F01000019000BF00BF00BF0020DA
:1020B00001900846006840F0040008600846006887
:1020C00000F00400019000BF00BF00BF002001909D
:1020D0000846006840F0800008600846006800F08C
:1020E0008000019000BF00BF00BF002001900846A3
:1020F000006840F0010008600846006800F0010038
:10210000019000BF00BF00BF00200190084600689A
:1021100040F0020008600846006800F002000190EC
:1021200000BF00BF012240211548FEF76CFC0022D1
:1021300080211348FEF767FC182002901148039095
:102140000020049002A91048FEF754FB40200290A2
:102150001120039000200490059002A90848FEF782
:1021600049FB8020029001200390002004900590FC
:1021700002A90348FEF73EFB07B000BD303802401D
:1021800000000240000011100010024000B587B0AE
:10219000142102A8FEF74CF80020019017481849B6
:1021A0000860002048607F2115488160FF21C160E0
:1021B0000021016141618161FFF7D0FA08B1FEF7AA
:1021C00019F900208DF808008DF809008DF80A0033
:1021D0000590069001208DF804008DF805008DF81B
:1021E000060000208DF80700042200210448FFF7B4
:1021F00059F908B1FEF7FEF807B000BD002800400D
:102200002C00002000B58DB0002009900A900B90A2
:102210000C90079008901C216846FEF709F82348A7
:102220002349086000204860002121488160632123
:10223000C160002101618161FFF7A4FB08B1FEF7D5
:10224000D9F84FF48050099009A91948FFF7FCFB11
:1022500008B1FEF7CFF81648FFF730FD08B1FEF7DA
:10226000C9F800200790089007A91148FFF730FB34
:1022700008B1FEF7BFF860200090002001900290A6
:1022800004900C2269460A48FFF794FC08B1FEF757
:10229000B1F807480068C06920F400600449096883
:1022A000C8610348FFF756FC0DB000BD00040040B4
:1022B0004C00002010B50B480B4908604FF4E1308A
:1022C0004860002108488160C16001610C214161C2
:1022D00000218161C161FFF7CBFD08B1FEF78AF8EB
:1022E00010BD000000100140EC00002000BFFEE720
:1022F00010B5FEF783FE10BD7047014600BF080908
:1023000000EB8000420001F00F001044C0B27047A3
:1023100070B5044600252068C06800F04000A0B9F0
:10232000681E2168C860FEF775FB054607E0FEF7EA
:1023300071FB401BB0F57A7F01D9032070BD206886
:10234000C06800F040000028F1D00020F6E700004F
:1023500010B50248FFF790F910BD00002C000020D6
:10236000704710B5FEF75CFB10BD000000B597B0DC
:1023700030210BA8FDF75CFF142106A8FDF758FFDC
:102380000020029003900490059000BF01902A481D
:10239000006840F08050284908600846006800F056
:1023A0008050019000BF00BF00BF00200190234873
:1023B000006840F48040214908600846006800F445
:1023C0008040019000BF00BF05200B904FF480308B
:1023D0000C9001200D9002201190410512910421D2
:1023E0001391A021149102211591072116910BA898
:1023F000FEF714FE08B1FDF7FDFF0F200690022046
:102400000790002008904FF4A05009900A900521F1
:1024100006A8FEF7ADFC08B1FDF7ECFF0220029024
:10242000C001059002A8FEF7D1FB08B1FDF7E2FF5D
:10243000FEF760FD17B000BD40380240007000405C
:102440001448006840F4700012490860124800689F
:1024500040F001001049086000200F490831086071
:102460000D4800680D4908400B4908600C48091DDB
:102470000860081F006820F48020091F0860002001
:1024800005490C3108604FF000600249803908604E
:102490007047000088ED00E000380240FFFFF6FEC4
:1024A0001030002410B50268294B98420ED0B0F1CC
:1024B000804F0BD0274B984208D0274B984205D02D
:1024C000264B984202D0264B984203D122F070024C
:1024D0004B681A431E4B984220D0B0F1804F1DD05C
:1024E0001C4B98421AD01C4B984217D01B4B984259
:1024F00014D01B4B984211D01A4B98420ED01A4B55
:1025000098420BD0194B984208D0194B984205D0ED
:10251000184B984202D0184B984203D122F44072D3
:10252000CB681A4322F080034C6943EA040202603C
:102530008B68C3620B688362054B984202D0084BDC
:10254000984201D10B6903630123436110BD000070
:10255000000001400004004000080040000C004062
:102560000004014000400140004401400048014097
:1025700000180040001C00400020004030B501F071
:102580001F05012404FA05F3046A9C430462046AEB
:1025900001F01F0502FA05F52C43046230BD70B549
:1025A0000546AC6B012084F83D00606AA84202D168
:1025B0000120207710E0A06AA84202D102202077F3
:1025C0000AE0E06AA84202D10420207704E0206BF0
:1025D000A84201D1082020772046FFF78AFB00207F
:1025E000207770BD70B50546AC6B012084F83D00C6
:1025F000606AA84202D10120207710E0A06AA842B8
:1026000002D1022020770AE0E06AA84202D1042029
:10261000207704E0206BA84201D1082020772046D3
:10262000FFF768FB0020207770BD70B50446A56BEE
:10263000012085F83D002846FFF78AFA70BD30B5C5
:102640000C46816821F47F4142EA03252543294352
:10265000816030BD0A46816821F0700142F00703B5
:10266000194381607047000030B5056A25F0010507
:102670000562026A4368846924F0700424F003044C
:102680000D682C4322F002028D682A43104DA842A7
:1026900000D103E00F4DA84206D100BF22F008028E
:1026A000CD682A4322F00402094DA84202D0094D08
:1026B000A84207D123F4807323F400734D692B43A0
:1026C0008D692B43436084614D684563026230BD70
:1026D000000001400004014030B5056A25F01005F6
:1026E0000562026A4368846924F4E04424F4407477
:1026F0000D6844EA052422F020028D6842EA0512A2
:10270000124DA84200D103E0114DA84207D100BFED
:1027100022F08002CD6842EA051222F040020B4D01
:10272000A84202D00A4DA84209D123F4806323F4C1
:1027300000634D6943EA85038D6943EA850343607D
:1027400084614D688563026230BD00000000014075
:102750000004014030B5056A25F480750562026AFF
:102760004368C46924F0700424F003040D682C430A
:1027700022F400728D6842EA0522124DA84200D16F
:1027800003E0114DA84207D100BF22F40062CD68DA
:1027900042EA052222F480620A4DA84202D00A4D84
:1027A000A84209D123F4805323F400534D6943EA2E
:1027B00005138D6943EA05134360C4614D68C56321
:1027C000026230BD000001400004014030B5056ADE
:1027D00025F480550562036A4468C26922F4E04228
:1027E00022F440720D6842EA052223F400538D68FA
:1027F00043EA0533084DA84202D0084DA84204D14F
:1028000024F480444D6944EA85144460C2614D68F3
:102810000564036230BD0000000001400004014077
:1028200030B50B461446026A056A25F001050562BB
:10283000816921F0F00141EA041122F00A021A43F1
:102840008161026230BD30B50B461446056A25F041
:10285000100505628169026A21F4704141EA043180
:1028600022F0A00242EA03128161026230BD000040
:102870002DE9F84F04462068006920F44050E168D3
:102880000843216808612169A06808436169084319
:10289000E169084300902068C06849F20C618843F0
:1028A000009908432168C8602068406920F440709E
:1028B000A169084321684861E069B0F5004F75D10E
:1028C000E3492068884203D0E249206888426FD1FA
:1028D000FEF72CFB814602206168A0FB01510B46EC
:1028E0001920A9FB00712A463846FDF769FC6421CE
:1028F000B0FBF1F04FEA001A02206168A0FB015121
:102900000B461920A9FB00712A463846FDF758FCF2
:10291000074602206168A0FB01510B461920A9FB64
:1029200000B12A465846FDF74BFC6421B0FBF1F09C
:1029300000EBC00101EB0010A7EB8000322101EB9E
:10294000C0006421B0FBF1F000F0F8000AEB400A8F
:1029500002206168A0FB01510B461920A9FB007100
:102960002A463846FDF72CFC074602206168A0FB8A
:1029700001510B461920A9FB00B12A465846FDF724
:102980001FFC6421B0FBF1F000EBC00101EB001073
:10299000A7EB8000322101EBC0006421B0FBF1F015
:1029A00000F007005044216888604FE16EE0FFE7C7
:1029B000FEF7ACFA814602206168A0FB01510B468C
:1029C0001920A9FB00712A463846FDF7F9FB64215E
:1029D000B0FBF1F04FEA001A02206168A0FB015140
:1029E0000B461920A9FB00712A463846FDF7E8FB83
:1029F000074602206168A0FB01510B461920A9FB84
:102A000000B12A465846FDF7DBFB6421B0FBF1F02C
:102A100000EBC00101EB0010A7EB8000322101EBBD
:102A2000C0006421B0FBF1F000F0F8000AEB400AAE
:102A300002206168A0FB01510B461920A9FB00711F
:102A40002A463846FDF7BCFB074602206168A0FB1A
:102A5000015003461920A9FB00B12A465846FDF74C
:102A6000AFFB6421B0FBF1F000EBC00101EB001003
:102A7000A7EB8000322101EBC0006421B0FBF1F034
:102A800000F00700504421688860DFE0704920684A
:102A9000884203D06F49206888426BD1FEF746FA1E
:102AA000814604206168A0FB01510B461920A9FB57
:102AB00000712A463846FDF783FB82460420616890
:102AC000A0FB01510B461920A9FB00712A4638468C
:102AD000FDF776FB6421B0FBF1F000EBC00101EBE8
:102AE0000010AAEB8000322101EB00106421B0FB42
:102AF000F1F000F0F00A04206168A0FB01500346E9
:102B00001920A9FB00712A463846FDF759FB6421BC
:102B1000B0FBF1F00AEB001A04206168A0FB015140
:102B20000B461920A9FB00712A463846FDF748FBE1
:102B3000074604206168A0FB015003461920A9FB49
:102B400000B12A465846FDF73BFB6421B0FBF1F08B
:102B500000EBC00101EB0010A7EB8000322101EB7C
:102B600000106421B0FBF1F000F00F005044216828
:102B700088606BE0FEF7CAF9814604206168A0FB1B
:102B8000015003461920A9FB00712A463846FDF77B
:102B900017FB824604206168A0FB01500346192000
:102BA000A9FB00712A463846FDF70AFB6421B0FBF9
:102BB000F1F000EBC00101EB0010AAEB8000322124
:102BC00001EB00106421B0FBF1F000F0F00A0420EA
:102BD0006168A0FB015003461920A9FB00712A4639
:102BE0003846FDF7EDFA6421B0FBF1F00AEB001A6C
:102BF00004206168A0FB017003461920A9FB005066
:102C000001463A462846FDF7DBFA0746042061688C
:102C1000A0FB015003461920A9FB00B12A465846E3
:102C2000FDF7CEFA6421B0FBF1F000EBC00101EB3F
:102C30000010A7EB8000322101EB00106421B0FBF3
:102C4000F1F000F00F00504421688860BDE8F88F73
:102C500000100140001401402DE9F04104460D46EA
:102C600017469846069E21E0701CF8B12EB1FDF77C
:102C7000D1FEA0EB0800B04218D92068C06820F44B
:102C8000D0702168C8602068406920F00100216888
:102C90004861202084F8390084F83A0000BF002001
:102CA00084F8380000BF0320BDE8F0812068006888
:102CB0002840A84201D1012000E00020B842D3D032
:102CC0000020F1E700BFFEE70FB4054B10B503A9E4
:102CD000044A029800F034F810BC5DF814FB0000C0
:102CE000853000082800002002480068C0F3022058
:102CF000704700000CED00E010B5002804DB0A0767
:102D0000130E054A135406E00A07140E034A00F096
:102D10000F031B1FD45410BD00E400E018ED00E0C9
:102D200002E008C8121F08C1002AFAD17047704794
:102D3000002001E001C1121F002AFBD170470000F2
:102D40002DE9FF4F8BB088460546002606E0252872
:102D50000BD0DDE90D1290476D1C761C28780028F9
:102D6000F5D10FB03046BDE8F08F0024A146A24651
:102D70000122AE4900E0044315F8013F203B02FA6E
:102D800003F00842F7D128782A2810D06FF02F02DC
:102D90002878A0F13001092915D809EB890102EB47
:102DA000410144F0020400EB01096D1CF0E758F802
:102DB000041B5FEA010903D544F40054C9F100097A
:102DC00044F002046D1C28782E2817D115F8010F45
:102DD00044F004042A280ED06FF02F022878A0F1C6
:102DE000300109290AD80AEB8A0102EB410100EB04
:102DF000010A6D1CF2E758F804AB6D1C28786C28AA
:102E00000FD006DC4C2817D068280DD06A2814D1C2
:102E100004E0742810D07A280FD10DE044F4001497
:102E20000AE044F4801401E044F4401469788142DB
:102E300002D104F580146D1C6D1C2878692865D0BA
:102E400006DC00288DD0632827D0642806D15DE0F9
:102E50006E2808D073282AD0752877D0DDE90D12A6
:102E60009047761CE0E0C4F30250022809D0032802
:102E70000DD0D8F8001004280DD00E6008F1040819
:102E8000D2E0D8F80010F217C1E90062F6E7D8F8EE
:102E900000100E80F2E70E70F0E718F8041B8DF8B2
:102EA000001000208DF80100EB46012003E058F8E7
:102EB00004BB4FF0FF3061074FF0000701D40AE078
:102EC0007F1C57450DDA8742FADB1BF807100029F3
:102ED000F6D106E07F1C8742FCDB1BF807100029B7
:102EE000F8D1DDE90D23A9EB07008146214600F06A
:102EF000B1F83044C61904E0DDE90D121BF8010BEE
:102F000090477F1EF8D22146484688E058F8040BC7
:102F1000C4F302514FF00A0B032900D100B2042977
:102F200000D140B2002802DA40422D2102E0210502
:102F300005D52B218DF82410012104E006E0E107DE
:102F400010D02021F6E708AF089113E058F8040BE1
:102F5000C4F302514FF00A0B032900D180B20429B7
:102F600000D1C0B20021EEE75946FDF76CF93031CF
:102F700007F8011D0028F7D1ADEB070000F1200B89
:102F8000600702D524F4803401E04FF0010ADA45ED
:102F900002DDAAEB0B0000E00020824600EB0B01F3
:102FA00008980144A9EB01000A90E00306D4DDE98A
:102FB0000D2321460A9800F04DF806444FF0000911
:102FC00008E009A911F80900DDE90D12904709F19F
:102FD0000109761C08998945F3DBE0030CD5DDE98E
:102FE0000D2321460A9800F035F8064404E0DDE997
:102FF0000D1230209047761CBAF10001AAF1010AA7
:10300000F5DC05E0DDE90D1217F8010B9047761CA1
:10301000BBF10001ABF1010BF4DC0A982146DDE9BC
:103020000D2300F005F806446D1C97E60928010001
:103030002DE9F041044600251E461746880404D4B5
:1030400005E039462020B0476D1C641EF9D528469E
:10305000BDE8F0812DE9F041044600251E4690466A
:10306000C80301D5302700E02027880404D505E0F7
:1030700041463846B0476D1C641EF9D52846BDE868
:10308000F081000013B50C4600BF064890F83900E7
:103090002028FAD10A23012269460248FEF766FF7A
:1030A00000981CBDEC000020FDF7C6FCFFF75EF9A0
:1030B000FEF7E6FFFFF76AF8FFF7FCF8FEF7C4FF3C
:1030C000FFF7A0F800F050F800BFFEE7F0B50346A8
:1030D0000C461546082D01D803B104B9F0BD0021F6
:1030E0003EE001EB4106F200002036E001EB410634
:1030F0001E44B6788027C7403E400EB1412700E00D
:10310000232702EB000C04F1500626F81C7001EB9B
:1031100041061E4477788026C640374017B14FF0ED
:10312000410C01E04FF0230C1618083604F150074B
:1031300027F816C001EB41069E5D8027C7403E4040
:1031400016B14FF0410C01E04FF0230C1618103669
:1031500004F1500727F816C0401C0828C6D3491CA4
:10316000A942BED300BFB9E710B5082206490748F7
:10317000FFF7ACFFE923044A0C210548FEF7BCFD2C
:1031800008B1FDF737F910BD2C0100200400002024
:103190004C000020000000000000000001020304B9
:1031A00006070809000000000102030400061016CB
:1031B00000061016D4310008000000202C0000008A
:1031C000202D0008003200082C000020D40A000046
:1031D000302D00080024F400FFFFFF64646400FF4A
:1031E000FFFF00FFFFFF000000FF00FF00FF0000E7
:1031F00000000000100000000100000000000000BE
:040000050800018965
:00000001FF
